:400000000010002011000000710200007102000008B500F02FF9C04638B5184C23688022D20213432360182000F0E4F92268144B13402360134A144B1A603022134B1A606F
:40004000203A134B1A601032124B1A6080221206114B1A6000252560104B114A1360114A1360114A114B1A600920114900F080F9092000F067F90F4B1D6038BD00010B4056
:40008000FFFFFBFF0600008004010B400C020240200202402402024008010B400100008000000240400002400E00008080000240050600000C020B4010B572B6002410E008
:4000C0002C4863001A195200821891881B195B001A5AC31858880004104300F02DF90134E4B2012CECD92349081C0C301C3100F009F9C0229200204B1A60C02292041F4BC3
:400100001A601F4A1F4B1A6099231B041E4A1360802149031D4A11601D4A1360802189051C4A11601C4A13601C4B197802220A431A701B4802783C218A4328390A430270AA
:40014000197816220A431A708C22164B1A60164A164B1A604022164B1A60C0225203154B1A600322144B1A60144A154B1A60FFF753FF10BDA00D000000000140040001404F
:40018000EEEE00000C00014000500F4008500F4010500F4018500F4030500F4000700F4001700F4000000440800D400008000440000104400801044000030440A40D000035
:4001C0000803044010B5064C2378002B07D1054B002B02D0044800E000BF0123237010BDE0000020000000009C0D000008B5084B002B03D00748084900E000BF074803688F
:40020000002B00D108BD064B002BFBD09847F9E7000000009C0D0000E4000020C80000200000000030B583B001AC00232370637062B600F099FA00F05FFD00F0BBFA022066
:400240000221221C00F04CFB0025002201AB1C78944202D15B78AB42F8D0201C00F034FA01AB5D78281C00F0F7FC221CEEE7C046FEE7C04670B50F4E0F4D13E029686B68F3
:40028000AC68002202E001C901C30432A242FAD1E868002202E0002102C304328242FAD11035013E002EE9D100F04AFDFFF7BAFFFEE7C046010000002C0E000008B500235C
:4002C0000AE0032B03D89A000A49505800E00A4899000A4A885001332F2BF2D9FFF7ECFE0022074B1A608022D205116801230B43136008BD00000000710200000000002029
:40030000C0000020F0B50025002711E0BB00C658F3B2FF22964308E06A008A181478A419527822700135013BDBB2002BF4D10137032FEBD9F0BDC04608B50A1C002100F026
:4003400025FD08BD1F2318401E3B8340181C014B1860704700E100E01F2318401E3B8340181C014B1860704780E100E001BE704738B5041C0D1C1F2802D90020FFF7F6FFF1
:40038000A400034B9C4664442068256038BDC0464000002070B5041C0E1E032E02D90020FFF7E4FF1F2C02D90020FFF7DFFF03252540ED00063500F0B9FCA408A400074BCD
:4003C0009C46644423680322AA409343AE40351C1D43256000F0AEFC70BDC04600E400E008B5034B1B7A584300F096FC08BDC046CC000020F0B557464E46C0B483B0041C3D
:4004000000F094FC0190E71E2D2F74D83F4B1B78DBB2A34208D33E4B1B78DBB29A463D4B1B78DBB2994631E03B4B1B78DBB2A34208D33A4B1B78DBB29A46394B1B78DBB2E4
:40044000994623E0374B1B78DBB2A34208D3364B1B78DBB29A46354B1B78DBB2994615E0334B1B78DBB2A34208D3324B1B78DBB29A46314B1B78DBB2994607E02F4B1B78F9
:40048000DBB29A462E4B1B78DBB299462D4BDE5D2F2E09D92A2C07D919222B4B1A60052000F03AFC192503E0274B1D683F231D40AE4206D2234BDA5D234B1A60052000F078
:4004C0002BFC1F4B9C4664442378DBB21F4A13601F4B52461A601F4B4A461A600520FFF77FFFAE420AD9174BDA5D174B1A60052000F012FC02E00020FFF738FF019800F031
:4005000019FC03B00CBC91469A46F0BDC0F1FF0FC1F1FF0FC2F1FF0FC3F1FF0FC4F1FF0FC5F1FF0FC6F1FF0FC7F1FF0FC8F1FF0FC9F1FF0FCAF1FF0FCBF1FF0FCCF1FF0FC6
:40054000CDF1FF0FD80D00002CFF0B4028FF0B401CFF0B4020FF0B40034B1868C0231B02184000D00120704700010B4008B500F0DDFB044A1368C02109020B43136000F00D
:40058000D9FB08BD00010B4010B500F0CFFB08490A68084B1A408024E40122430A600A6813408022120213430B6000F0C3FB10BD00010B40FF3FFFFF70B5061C00F0B6FBE8
:4005C000041CFFF7C9FF002803D0FFF7DDFF012500E000250848331C0340084A106808490840184310601368012D01D1FFF7BEFF201C00F09FFB70BD0404040010020B408B
:40060000FBFBFBFF10B5244B1B685B0715D5234B1B685B070ED5224BD969042001401F4C22688A432260DA698243DA611B69002B00D098470420FFF7BFFF174B1B685B057B
:4006400018D5164B1B685B0510D5154BD9698022D2001140114802688A430260D969114A0A40DA615B69002B00D098478020C000FFF7A2FF084B1B685B030CD5074B1B686A
:400680005B0304D5064B9B69002B00D098478020C002FFF791FF10BD10020B40DC000020FC000020FFFBFFFF0004000C014B18607047C046080105400004000C014B1860FF
:4006C0007047C046140105400004000C014B18607047C0460C01054038B5041C0D1C00F025FBAC40024B1C6000F024FB38BDC0460800054008B500F019FB064A1168012300
:400700000B43136000F016FB01201821FFF7E4FF08BDC04600000540014B18607047C0463801054010B50D4C8023DB042360236823600020FFF7B8FF236823600C22084B28
:400740001A600120FFF7E8FF3122064B1A60FF20FFF7B2FF0020FFF7B7FF10BD00010540240105402801054008B5064B1B78002B04D1FFF7D7FF0122024B1A70FFF7BAFF50
:4007800008BDC0461C01002008B50B20FFF7DAFD08BDC04608B500F03BF808BD08B5044A1368802109060B431360FFF7EDFF08BD0000074008B5064B1B78002B04D1FFF790
:4007C000E9FF0122024B1A70FFF7E8FF08BDC046200100200A4B1B68DB050DD5094B1B685B0409D4064B1968074A0A401A601A68802149000A431A600222044B1A607047C3
:400800000000074060000740FFFEFFFF6C00074010B500241C4B1C601C4A1D4B1A601D4A11680C230B4313601B4B1C4A13601C4A14601C491C4A11601C4A13601C4B1C6027
:400840000B20FFF789FD0B200321FFF7A3FD0B201849FFF78DFD184B1C60184B1C605222FF32174B1A60174B1C60174B1C60174B1C60174B1C70174B1C70174B1C80174BCB
:4008800000221A7010BDC046000007400008004060000740700007400701008000030740040307401000FE0010030740000207400402074011090000C80E0740880E07409A
:4008C000480F0740080F0740C80F0740880F07403C0100202E010020300100203801002070B5061C0D1C141E0BD00B20FFF734FD044B1C60044B1E80044B1D800B20FFF716
:4009000021FD70BD340100203A0100202C01002070B5AA4B1B68002B00D09847A84B1C88A84B1D68A84B1E680223FF331D423FD0A64A13685B005B081360A54B1B789B06EB
:400940001DD5A34B1A7820218A431A70197810220A431A709F4B1B68DB060BD49E4B1A78974B1B889A420AD0994A117808230B43137004E0964A117802230B431370974A64
:400980001168974B0B4013600023964A1360914A13609549954A116095498A4A1160954A13708A4A1368802109060B43136002E1F30602D50022904B1A600A23334200D14A
:4009C00090E08E4B1B685B0756D58D4B1B68894A1278002A16D0012A47D18A4A1288002A0DD00121884A1160884A12681219DBB213700134834A1388013B138038E0FFF7B8
:400A0000E9FE35E0824A12889A422BD901217E4A1160804A12889A4202D9D21A92B200E0002278490A80072A03D80121714A117014E0082A09D169490A68A02000020243EC
:400A40000A600021674A116008E064490A688020800102430A600821624A11605E4A13701C1C05E0FFF7B6FE02E00020FFF77EFC04225E4B1A6035E0584B1B689B0431D51F
:400A8000B3070DD5644B1B680F211940534A1068534B03401360012014E00821012011E0584B1988083989B219800829F5D8002008E0564B1B681B19514A1268D2B21A704C
:400AC000013401390029F4D1002808D1434A1368802109020B4313600022424B1A600C22424B1A60B30745D5EB0615D500233D4A1360384A1360384B1B78A34201D1022312
:400B000000E00A232B40324A11780B4320218B4313700022374B1A706B0629D52C4A117820230B4313702C4B1B781C1C3B4A1268D20612D5364A1288D31A324A1380384B0F
:400B40001A68802149020A431A601968354A0A401A6010221F4B1A6002E00422214B1A600123314A13602249164A1160264A1360144B1D60144B1B685B071CD5214B1B8827
:400B8000002B0CD0214B1B681B191B78DBB2274A136001341B4A1388013B138002E0FF22224B1A60224B1B680F221340082BE5D10132204B1A60024B1C8070BD2401002049
:400BC00030010020400F0740000E0740000007402E010020880F07403801002060000740FF5FFFFFC80F0740ED0F0000C00F0740FF0F00003C010020880E0740CC0F07404F
:400C000040030740280100206C000740340100203A0100202C010020080307406400074004020740FFFFFEFF800E07404002074008020740800F07400004000C014B186093
:400C40007047C046480105400004000C014B18607047C046540105400004000C014B18607047C0464C01054038B5041C0D1C00F05DF8AC40024B1C6000F05CF838BDC0466C
:400C80000800054008B500F051F8064A116802230B43136000F04EF802201821FFF7E4FF08BDC04600000540014B18607047C0467801054010B50D4C8023DB0423602368DB
:400CC00023600020FFF7B8FF236823600C22084B1A600120FFF7E8FF3122064B1A60FF20FFF7B2FF0020FFF7B7FF10BD40010540640105406801054008B5064B1B78002B76
:400D000004D1FFF7D7FF0122024B1A70FFF7BAFF08BDC0462A0100200230800804D0C0460138FDD1C046C046C0467047EFF3108072B6704780F310887047C046C046C046CA
:400D40000E4B70B500251E1C0D4CE41AA410A54204D0AB00F35898470135F8E700F054F8084B00251E1C084CE41AA410A54204D0AB00F35898470135F8E770BD140E0000FE
:400D8000140E0000140E00001C0E0000031C8218934202D019700133FAE770470000000000300F40000400400F40000401330F4002400F4005410F4006430F40E6305680CD
:400DC000D44062048A808E049E80D84018801C8088408C40C60CE60C030405060708090A0B0C0E0F101112131415161718191B1C1D1E1F2021222325262728292A2B2E2F5A
:400E00003031323334350000F8B5C046F8BC08BC9E467047ED010000BD020000F8B5C046F8BC08BC9E467047C5010000400E0000C8000020180000006000000000000000D6
:400E4000000000000000E02EC05D00001800000000366E0104040400000000000000000000000000000000000000000000000000000000000000000000000000000000007E
:400E80000000000000000000000000000000000000000000000000000000000000000000000000000000000000000000000000000000000000000000000000000000000032
:400EC00000000000000000000000000000000000000000000000000000000000000000000000000000000000000000000000000000000000000000000000000000000000F2
:400F000000000000000000000000000000000000000000000000000000000000000000000000000000000000000000000000000000000000000000000000000000000000B1
:400F40000000000000000000000000000000000000000000000000000000000000000000000000000000000000000000000000000000000000000000000000000000000071
:0200000490303A
:020000007D344D
:0200000490402A
:200000000000000000000000000000000000000000000000000000000000000000000000E0
:0200000490501A
:0C000000000204C81193110104CC8EC74B
:0200000490600A
:0100000001FE
:00000001FF