:400000000010002011000000790200007902000008B500F033F9C04638B5164C23688022D20213432360182000F074FC2268124B13402360114A124B1A602022114B1A60E2
:40004000103A114B1A6080221206104B1A60002525600F4A0F4B1A600F4A104B1A6009200F4900F0FDFB092000F0E4FB0D4B1D6038BDC04600010B40FFFFFBFF06000080D1
:4000800004010B40080202400C02024008010B400E000080000002401000008040000240910B00000C020B4010B572B6002410E0284863001A195200821891881B195B008E
:4000C0001A5AC31858880004104300F01FF90134E4B2012CECD9204A204B1A609922204B1A6099231B041F4A13601F4A13601F4A13601F4A107802230221014311701D4CF0
:4001000021783C20814328380143217010781621014311700C21184A11601849184A1160184A13604021184A11601849184A1160184A13600321184A11601849184A1160DC
:40014000184A13603121184A1160184A1360FFF763FF10BDC00C0000EEEE00000C0001401000014000500F4010500F4030500F4000700F4001700F4000000440810D0000D7
:40018000080004400C0004400001044001001800080104400C01044000030440A40D00000803044000040440080404401804044010B5064C2378002B07D1054B002B02D066
:4001C000044800E000BF0123237010BDE000002000000000BC0C000008B5084B002B03D00748084900E000BF07480368002B00D108BD064B002BFBD09847F9E700000000FA
:40020000BC0C0000E4000020C80000200000000010B582B001AC0023237062B600F092F801200121221C00F02DF9002000F0E2FA642000F04DFB012000F0DCFA642000F084
:4002400047FB002000F0D6FA642000F041FB012000F0D0FA642000F03BFB00F0A1F800F00BFC00F0A1F801AB1878FA239B00584300F02EFBD9E7C046FEE7C04670B50F4E43
:400280000F4D13E029686B68AC68002202E001C901C30432A242FAD1E868002202E0002102C304328242FAD11035013E002EE9D100F0D6FCFFF7ACFFFEE7C0460100000046
:4002C000200D000008B500230AE0032B03D89A000A49505800E00A4899000A4A885001332F2BF2D9FFF7E0FE0022074B1A608022D205116801230B43136008BD00000000BB
:400300007902000000000020C000002008B50A1C002100F0CBFC08BD08B50B2000F08AFA08BDC04608B500F043F808BD08B5044A1368802109060B431360FFF7EDFF08BD50
:400340000000074008B5064B1B78002B04D1FFF7E9FF0122024B1A70FFF7E8FF08BDC046FC0000200A4B1B68DB050DD5094B1B685B0409D4064B1968074A0A401A601A68E3
:40038000802149000A431A600222044B1A6070470000074060000740FFFEFFFF6C00074008B500F087F808BD08B500F089F808BD10B5802252001D4B1A601D4A1D4B1A6084
:4003C0001D4A11680C230B4313601C4B1C4A136000241C4A14601C491C4A11601C4A13601C4B1C600B2000F02FFA0B20032100F049FA0B20184900F033FA184B1C60184B46
:400400001C605222FF32174B1A60174B1C60174B1C60174B1C60174B1C70174B1C70174B1C80174B00221A7010BDC0460000074000080040600007407000074007010080F5
:4004400000030740040307401000FE00100307400002074004020740CD040000C80E0740880E0740480F0740080F0740C80F0740880F0740380100202A0100202C01002032
:400480003401002070B5061C0D1C141E0BD00B2000F0DAF9044B1C60044B1E80044B1D800B2000F0C7F970BD3001002036010020280100200122014B1A607047880E074062
:4004C0000022014B1A607047880E074070B5AA4B1B68002B00D09847A84B1C88A84B1D68A84B1E680223FF331D423FD0A64A13685B005B081360A54B1B789B061DD5A34B1C
:400500001A7820218A431A70197810220A431A709F4B1B68DB060BD49E4B1A78974B1B889A420AD0994A117808230B43137004E0964A117802230B431370974A1168974B2D
:400540000B4013600023964A1360914A13609549954A116095498A4A1160954A13708A4A1368802109060B43136002E1F30602D50022904B1A600A23334200D190E08E4BA0
:400580001B685B0756D58D4B1B68894A1278002A16D0012A47D18A4A1288002A0DD00121884A1160884A12681219DBB213700134834A1388013B138038E0FFF7D3FE35E05F
:4005C000824A12889A422BD901217E4A1160804A12889A4202D9D21A92B200E0002278490A80072A03D80121714A117014E0082A09D169490A68A020000202430A600021A2
:40060000674A116008E064490A688020800102430A600821624A11605E4A13701C1C05E0FFF7A0FE02E0002000F018F904225E4B1A6035E0584B1B689B0431D5B3070DD5D7
:40064000644B1B680F211940534A1068534B03401360012014E00821012011E0584B1988083989B219800829F5D8002008E0564B1B681B19514A1268D2B21A7001340139BD
:400680000029F4D1002808D1434A1368802109020B4313600022424B1A600C22424B1A60B30745D5EB0615D500233D4A1360384A1360384B1B78A34201D1022300E00A23B8
:4006C0002B40324A11780B4320218B4313700022374B1A706B0629D52C4A117820230B4313702C4B1B781C1C3B4A1268D20612D5364A1288D31A324A1380384B1A6880213E
:4007000049020A431A601968354A0A401A6010221F4B1A6002E00422214B1A600123314A13602249164A1160264A1360144B1D60144B1B685B071CD5214B1B88002B0CD087
:40074000214B1B681B191B78DBB2274A136001341B4A1388013B138002E0FF22224B1A60224B1B680F221340082BE5D10132204B1A60024B1C8070BD000100202C0100206B
:40078000400F0740000E0740000007402A010020880F07403401002060000740FF5FFFFFC80F0740ED0F0000C00F0740FF0F000038010020880E0740CC0F07404003074066
:4007C000040100206C000740300100203601002028010020080307406400074004020740FFFFFEFF800E07404002074008020740800F074004490A68FB231A408000F73B7D
:4008000018401043086070470000044010B5041C00F01CFA07231C40E40404490B68044A134023430B6000F015FA10BD00010B40FFFFC7FF1F2318401E3B8340181C014B0D
:400840001860704700E100E01F2318401E3B8340181C014B1860704780E100E001BE704738B5041C0D1C1F2802D90020FFF7F6FFA400034B9C4664442068256038BDC04685
:400880004000002070B5041C0E1E032E02D90020FFF7E4FF1F2C02D90020FFF7DFFF03252540ED00063500F0D1F9A408A400074B9C46644423680322AA409343AE40351CFE
:4008C0001D43256000F0C6F970BDC04600E400E010B5041C06E0084B186800F0ADF9074B9C46644480231B029C42F4D8024B5868604300F0A1F910BDCC0000200080FFFF82
:4009000008B5034B1B7A584300F096F908BDC046CC000020F0B557464E46C0B483B0041C00F094F90190E71E2D2F74D83F4B1B78DBB2A34208D33E4B1B78DBB29A463D4B73
:400940001B78DBB2994631E03B4B1B78DBB2A34208D33A4B1B78DBB29A46394B1B78DBB2994623E0374B1B78DBB2A34208D3364B1B78DBB29A46354B1B78DBB2994615E09F
:40098000334B1B78DBB2A34208D3324B1B78DBB29A46314B1B78DBB2994607E02F4B1B78DBB29A462E4B1B78DBB299462D4BDE5D2F2E09D92A2C07D919222B4B1A60052090
:4009C00000F03AF9192503E0274B1D683F231D40AE4206D2234BDA5D234B1A60052000F02BF91F4B9C4664442378DBB21F4A13601F4B52461A601F4B4A461A600520FFF76C
:400A00007FFFAE420AD9174BDA5D174B1A60052000F012F902E00020FFF720FF019800F019F903B00CBC91469A46F0BDC0F1FF0FC1F1FF0FC2F1FF0FC3F1FF0FC4F1FF0F7A
:400A4000C5F1FF0FC6F1FF0FC7F1FF0FC8F1FF0FC9F1FF0FCAF1FF0FCBF1FF0FCCF1FF0FCDF1FF0FCC0C00002CFF0B4028FF0B401CFF0B4020FF0B40F0B583B000F0E6F838
:400A8000041C134A13685B005B0813608025ED052B68022633432B600E4B1B889BB20E4A13600E4A116804230B4313600C4F3B6801930220FFF7AAFE30BF019B3B602B68E2
:400AC000B3432B60201C00F0C5F803B0F0BDC04600000B4052F1FF0F0C000B4010ED00E000010B40034B1868C0231B02184000D00120704700010B4008B500F0A7F8044A56
:400B00001368C02109020B43136000F0A3F808BD00010B4010B500F099F808490A68084B1A408024E40122430A600A6813408022120213430B6000F08DF810BD00010B4019
:400B4000FF3FFFFF70B5061C00F080F8041CFFF7C9FF002803D0FFF7DDFF012500E000250848331C0340084A106808490840184310601368012D01D1FFF7BEFF201C00F04A
:400B800069F870BD0404040010020B40FBFBFBFF10B5244B1B685B0715D5234B1B685B070ED5224BD969042001401F4C22688A432260DA698243DA611B69002B00D098471C
:400BC0000420FFF7BFFF174B1B685B0518D5164B1B685B0510D5154BD9698022D2001140114802688A430260D969114A0A40DA615B69002B00D098478020C000FFF7A2FFB2
:400C0000084B1B685B030CD5074B1B685B0304D5064B9B69002B00D098478020C002FFF791FF10BD10020B40DC00002008010020FFFBFFFF000000000230800804D0C046A1
:400C40000138FDD1C046C046C0467047EFF3108072B6704780F310887047C046C046C0460E4B70B500251E1C0D4CE41AA410A54204D0AB00F35898470135F8E700F03EF8CC
:400C8000084B00251E1C084CE41AA410A54204D0AB00F35898470135F8E770BD080D0000080D0000080D0000100D0000031C8218934202D019700133FAE770470000000099
:400CC00000300F40000400400F400004030405060708090A0B0C0E0F101112131415161718191B1C1D1E1F2021222325262728292A2B2E2F3031323334350000F8B5C0463B
:400D0000F8BC08BC9E467047D9010000C5020000F8B5C046F8BC08BC9E467047B1010000300D0000C80000201800000060000000000000000000E02EC05D000018000000A7
:400D400000366E01040404000000000000000000000000000000000000000000000000000000000000000000000000000000000000000000000000000000000000000000C2
:400D80000000000000000000000000000000000000000000000000000000000000000000000000000000000000000000000000000000000000000000000000000000000033
:400DC00000000000000000000000000000000000000000000000000000000000000000000000000000000000000000000000000000000000000000000000000000000000F3
:400E000000000000000000000000000000000000000000000000000000000000000000000000000000000000000000000000000000000000000000000000000000000000B2
:400E40000000000000000000000000000000000000000000000000000000000000000000000000000000000000000000000000000000000000000000000000000000000072
:0200000490303A
:020000001DAE33
:0200000490402A
:200000000000000000000000000000000000000000000000000000000000000000000000E0
:0200000490501A
:0C000000000204C81193110104CC2F4130
:0200000490600A
:0100000001FE
:00000001FF