:400000000010002011000000710200007102000008B500F047F9C04638B5194C23688022D20213432360182000F0B4FA2268154B13402360144A154B1A603022144B1A6081
:40004000103A144B1A60103A134B1A6080221206124B1A6000252560114A124B1A60124A124B1A60124A134B1A600920124900F04FFA092000F036FA104B1D6038BDC0468E
:4000800000010B40FFFFFBFF0600008004010B400C020240140202401802024008010B40FE00008000000240FE0000C0400002401000008080000240A50700000C020B4077
:4000C00010B572B6002410E02B4863001A195200821891881B195B001A5AC31858880004104300F041F90134E4B2012CECD92249081C0C30203100F01DF999231B041F4A8F
:400100001360EE2109021E4A11601E4A13601E4A13601E4A1360802292051D4B1A601D4B197802220A431A701B4802783C218A4328390A430270197816220A431A702023AF
:40014000164A1360C4218902154A1160154A13601E33154A1360154A1360D8221201144B1A600423134A1360134A1360FFF754FF00F020F910BDC04664210000000001400D
:400180000C00014000500F4010500F4030500F4038500F4000700F4001700F40000004400800044018000440000104401801044008030440000404401804044010B5064CE3
:4001C0002378002B07D1054B002B02D0044800E000BF0123237010BD80010020000000005821000008B5084B002B03D00748084900E000BF07480368002B00D108BD064B72
:40020000002BFBD09847F9E7000000005821000084010020C80000200000000030B585B062B600F0E1F800F027FD00F07FFD00F081FC0D4D00F06AFB0028FBD100F0B6FED4
:40024000041E094A94420AD0A84208D001A80749221C01F079FB01A800F038F9251C00F093FE00F067FCE5E7FFFF00005C210000FEE7C04608B5031C084A1068C318084A17
:400280009A1A802A02DC054A136005E001F028FB0C2303600120404208BDC046CC000020B802002070B50F4E0F4D13E029686B68AC68002202E001C901C30432A242FAD1C1
:4002C000E868002202E0002102C304328242FAD11035013E002EE9D101F008FBFFF79EFFFEE7C046010000000C23000008B500230AE0032B03D89A000A49505800E00A4857
:4003000099000A4A885001332F2BF2D9FFF7D8FE0022074B1A608022D205116801230B43136008BD000000007102000000000020C0000020F0B50025002711E0BB00C6581B
:40034000F3B2FF22964308E06A008A181478A419527822700135013BDBB2002BF4D10137042FEBD9F0BDC04608B50A1C002101F0E3FA08BD0C4B1B68002803D0802212064E
:40038000134301E05B005B08074A1360074B1B68002803D080229204134301E0044A1340024A13607047C04680031A4008010B40FFFFFFFD08B50120FFF7DCFF08BDC04683
:4003C00008B500F06DF808BD08B500F01DF808BD08B5044A1368802109060B431360FFF7EFFF08BD0000074008B5064B1B78002B04D1FFF7E9FF0122024B1A70FFF7E8FF62
:4004000008BDC0469C01002010B5134A134B1A600023134A13600121124A1160124A13480260072412480460124803601248016012490A60124A1360124A1360124A1360AC
:40044000124A1360124A1360124A1360124A13601268124B1A8010BD0B0000020000074040000740480007400700008000030740040307401003074044000740000207404B
:4004800004020740880E0740C80E0740480F0740080F0740C80F0740880F07409E010020064A1168064B0B40902109040B431360044B1A88044B1A607047C04600000140A2
:4004C000FFFF0FFF9E010020880F074038B5051C002402E000F004FF0134285D0028F9D138BDC0461F2318401E3B8340181C014B1860704700E100E01F2318401E3B8340C9
:40050000181C014B1860704780E100E001BE704738B5041C0D1C1F2802D90020FFF7F6FFA400034B9C4664442068256038BDC0464000002070B5041C0E1E032E02D9002071
:40054000FFF7E4FF1F2C02D90020FFF7DFFF03252540ED00063500F0DDFEA408A400074B9C46644423680322AA409343AE40351C1D43256000F0D2FE70BDC04600E400E091
:4005800008B5034B1B7A584300F0BAFE08BDC046D0000020F0B557464E46C0B483B0041C00F0B8FE0190E71E2D2F74D83F4B1B78DBB2A34208D33E4B1B78DBB29A463D4BA1
:4005C0001B78DBB2994631E03B4B1B78DBB2A34208D33A4B1B78DBB29A46394B1B78DBB2994623E0374B1B78DBB2A34208D3364B1B78DBB29A46354B1B78DBB2994615E023
:40060000334B1B78DBB2A34208D3324B1B78DBB29A46314B1B78DBB2994607E02F4B1B78DBB29A462E4B1B78DBB299462D4BDE5D2F2E09D92A2C07D919222B4B1A60052013
:4006400000F05EFE192503E0274B1D683F231D40AE4206D2234BDA5D234B1A60052000F04FFE1F4B9C4664442378DBB21F4A13601F4B52461A601F4B4A461A600520FFF79D
:400680007FFFAE420AD9174BDA5D174B1A60052000F036FE02E00020FFF738FF019800F03DFE03B00CBC91469A46F0BDC0F1FF0FC1F1FF0FC2F1FF0FC3F1FF0FC4F1FF0F94
:4006C000C5F1FF0FC6F1FF0FC7F1FF0FC8F1FF0FC9F1FF0FCAF1FF0FCBF1FF0FCCF1FF0FCDF1FF0FA42100002CFF0B4028FF0B401CFF0B4020FF0B40034B1868C0231B02A7
:40070000184000D00120704700010B4008B500F001FE044A1368C02109020B43136000F0FDFD08BD00010B4010B500F0F3FD08490A68084B1A408024E40122430A600A6871
:4007400013408022120213430B6000F0E7FD10BD00010B40FF3FFFFF70B5061C00F0DAFD041CFFF7C9FF002803D0FFF7DDFF012500E000250848331C0340084A10680849A5
:400780000840184310601368012D01D1FFF7BEFF201C00F0C3FD70BD0404040010020B40FBFBFBFF10B5244B1B685B0715D5234B1B685B070ED5224BD969042001401F4CCE
:4007C00022688A432260DA698243DA611B69002B00D098470420FFF7BFFF174B1B685B0518D5164B1B685B0510D5154BD9698022D2001140114802688A430260D969114A56
:400800000A40DA615B69002B00D098478020C000FFF7A2FF084B1B685B030CD5074B1B685B0304D5064B9B69002B00D098478020C002FFF791FF10BD10020B40E00000203C
:40084000A0010020FFFBFFFF38B517480368DBB2164A13700F24A343191C154D2A780F2313400B43F02293431A1C2B78A34313430360104A104B1A60104A114B1A60114A59
:400880001168114B0B40C021C9000B4313600F20FFF732FE0F200D49FFF73AFE0F200321FFF748FE38BDC04600FF08400802002062F1FF0F00020001080008400008A0014D
:4008C0000400084010000140FFF0FFFF2910000008B500F0F3FC00F0D5FC0020002100F0D9FC0020002100F0F1FC00F0DDFC00F0BFFC044A136804490B4313600F20FFF744
:40090000F1FD08BD0400084000100880024B1878012318407047C046C00100204000024B181880887047C046C0010020F8B5104F3C5C3818027A55005519EDB29200D6B2DA
:4009400000F0E8FCA4003B191C6922680F21B1408A43111C0422B2400A435E6A33680721A9408B433360226000F0D8FCF8BDC046D4210000F8B519490C5C0B181E7AB2006D
:40098000D2B275007519EDB2154B185CA300CB181F693B680F2191408B433B60022800D10020012801D1002700E0062700F0B2FCA4000A4B1C19616A0B680722AA409343E5
:4009C0001A1C3B1CAB4013430B6000F0A7FCA16B0B680122B24093430B60F8BDD42100002C02002010B5002403E0201CFFF7C2FF0134042CF9D910BD03231840024B1A684E
:400A0000400210431860704704000840CA0807231940063B8B40191C835C194201D0012000E000207047C04610B5041C0134E4B2052C06D004480430211CFFF7E7FF0028AF
:400A4000F4D0201C10BDC046E4000020F8B5041C234B4C331B5C9B00224A9E582248211CFFF7D4FF214B9E4203D88640FF20000406431F4B185D013880B2002100F00AFC47
:400A80001C4B185D013880B2002100F01FFC0F20FFF732FD18490A68184B1A40184B185D184B1B5D1B04034313430B60164F3D68164B1D40164B1D430F20FFF713FD201C0C
:400AC000FFF734FF00F026FC041C3D60002000F017FC104B1E60201C00F020FCF8BDC046D4210000E40000200C020020FFFFFEFF34020020140200200800084000FF80FF83
:400B00001C0200202402002004000840FF1FDFFF200020000C00084008B5054B00221A70C2B29A7381221A70FFF790FF08BDC046C001002010B50B4C00232370FF33A373A3
:400B4000A07BC0B2FFF770FFA073A37BDBB2042B07D8217801220A432270A07BC0B2FFF775FF10BDC001002038B5051C174B1C68A4B24300164AD3189C80164B4C331B5C2C
:400B80009B00154A9A58154B9A4208D81448291CFFF73CFF6B000E4AD31804419C80281CFFF7E8FE0F20FFF7A7FC0E4A11680E4B0B40A02109020B4313600C4A11680C4B3C
:400BC0000B4013600F20FFF78DFC38BD0C000840C0010020D4210000E4000020FFFFFEFF0C02002004000840FF1FDFFF0800084000FF80FF10B5CC0807231940063B8B40FF
:400C0000D9B2002A04D0041923781943217003E0041923788B43237010BDC04670B5061C002400250BE0301CFFF776FFFFF76EFE0128FBD0301CFFF771FE24180135002DDF
:400C4000F1D0A0B270BDC046014B19547047C0462C02002010B5002404E0201C0021FFF7F3FF0134042CF8D9FFF7EEFD0020FFF7C3FEFFF7B7FE10BD08B50B4BDB7B002B5E
:400C800004D1FFF7E7FF0122074BDA73FFF720FE00F090FA0122044B1A74044A13688021C9030B43136008BDC001002004000840F0B5002714E00C4BDE5D0C4BDB5D9E19B2
:400CC0001A1C002404E08D5CA54200D92C1C0132B242F8D301E0CC540133B342FBD301378742E8D3F0BDC0463C220000402200004300054A9A5A05495A5208180021017377
:400D0000017503495A527047C4010020D40100204C02002010B5041CFFF7FEFEFFF7F6FD0028FBD1201CFFF7E3FF10BD10B5002403E0201CFFF7EEFF0134042CF9D910BDC2
:400D400070B5094D14352D180026FF20002308E0EC5C944203D9A64201D2261C181C0133DBB28B42F4D370BDD4010020F0B583B0041C0192009308AB1878344B14335918E0
:400D8000002C02D0661EF6B200E00026631CDDB20B5D9C462D4B243362465A70002C07D12A4B002624229E544A5D24339A7012E0019A013A944207D1895D244B242299548D
:400DC000243300229A7006E08E5D204B24229E544A5D24339A7024231C4AD35C834204D91B1A242219498B5403E000212423174AD154164A243253781B1ADBB253709278D9
:400E0000824204D9101A114A2432907003E000210E4A243291700D490A1C243292782420095C501AC9188918000200F067FC240204196B460020185E6043FE23DB019C46B1
:400E40006044000CC0B203B0F0BDC046D401002043184900C818800880B27047F0B5474680B482B0041C3B4B1E5C3B4B9B5D019342003A4BD75A3A4B5B7A002B08D0394D5B
:400E80009046515B381CFFF7E3FF071C43465853E1B23548314A00F007FB6300334A9A5ABA4207D80021324B1955BD1AADB20123984603E0D51BADB2002398464346002BD6
:400EC00015D12C4B9B5DAB4211D2294B1B5D244A12191279934206D3201CFFF709FF0022234B1A551CE00133214A135518E06B469B88AB4206D21F4B9B5DAB4210D9434681
:400F0000002B0DD11302194801190E7B3343FF18BF1A3A0A6300C2520F730022144B1A556B469E88AE420DD24346002B0AD0FF2D04D90E4B1C19FF23237507E00B4B1C1905
:400F4000257503E0094B1C190023237502B004BC9046F0BD202200003C020020C4010020000100204C0200209C020020D4010020400200204802002010B5041C00F0A2F8B9
:400F8000201CFFF76BFF10BD10B5002409E00648211CFFF73BFD002802D0201CFFF7ECFF0134042CF3D910BDE800002030B583B0041C194B1B181D7B184B1A5C002005219A
:400FC000FFF7BEFEFF2820D0154B1B5D009300210522C8235B01FFF7C9FE011C80B26B1CDBB20D4A5219127B002A06D10A4AD3181973551901232B730CE0074CE418217BEC
:40100000FFF726FF031C237304E0034B5D1900232B73044803B030BD000100205C0200203C020020FFFF000010B50F20FFF764FA01221E4B1A601E4B1878C0B2FFF794FD50
:401040001C4B1B785BB2002B05DA1A4A137801218B43137026E0164C2078C0B2FFF7E4FC20702378DBB2042B05D8114B1878C0B2FFF7ECFC16E00F4B1A7801218A431A705A
:401080001B785B060ED500220B4B1A7006E00B4AD15C0B4AD1540133074A1370064B1B78002BF4D00F20FFF71DFA10BD14000840CE010020C0010020FC0100201002002016
:4010C000E800002070B582B0154B1C5CC1B2154E154D00951548221C331C00F063FA335D295D134A1155DB2B03D8DB08114A135514E0EC2B03D81B090E4A13550EE0F42B7E
:4011000003D85B090B4A135508E0F92B03D89B09084A135502E00022064B1A5502B070BD202200005C0200203C0200209C0200204802002058020020024A136840218B4315
:401140001360704704000840044A1168044B0B40802189000B4313607047C04608000840FFFCFFFC38B5002208E00D498B5C5D080C4CA55401335B088B54013203789342C7
:40118000F3D80F20FFF7B8F9074A1168074B0B4007490B4313600F20FFF7A4F938BDC0461C0200202402002008000840FFFCFFFC0002000170B5254B05221A70012159705B
:4011C0009A701332DA80224A9A80224A9A60FFF7B3FF002304E099001F48204A885001331A4A52789A42F6D8002306E004211C4AD15402391B4AD1540133042BF6D9FFF7B7
:40120000A3FF124C184E201C311C00F0ADF8174D0120291CFFF74CFD201C00F0B6F8201C311C00F0A1F80120291CFFF741FD201C00F0CCF8201CFFF795FF002403E0201CA2
:40124000FFF740FF0134042CF9D970BD9C020020CC040000442200000000FF0FE400002014020020340200209A0D00001C020020034A1368802109060B4313607047C04668
:4012800000000240024A13685B005B081360704700000240034A13681B0C1B04184310607047C04600000240034A1368802109060B4313607047C04640000240024A1368E4
:4012C0005B005B081360704740000240034A13681B0C1B04184310607047C04640000240044B1B680F221340082BF9D0024B18607047C046080207404002074000000000BE
:401300000230800804D0C0460138FDD1C046C046C0467047EFF3108072B6704780F310887047C046C046C046F7B59C180023071C08268025019100922370237800982B4353
:401340002370BB689B6C9847019B984202D22378AB432370013E6D08002EEED12378F82B01D9F8232370F7BD70B5051C0E1C00242B789C4208D2AB68221C281C311C1B687C
:40138000FFF7D2FF0134F3E770BD38B5051C00242B789C4219D2AA6813681B5DDB080F2B00D90F23D16BD268C95C1155AA68042B04D9936D906B211C012203E0936D906B07
:4013C000211C002298470134E2E738BDF0B5041C002687B063789E4262D2A3685A6C925D0392002A01D1013203921A6C925D019201992278914251D29A689B69515C0F227C
:401400001140B2000492002205910499019D5A50019B5B000293039B019A9B189D423DD2A768E388A0885843FB68595D00F066F93B68595D00F0D2F8059B5843194B400079
:401440005A2802D95B084008FAE7BA6904991B0C1B045350A36882085B6B01215855A368C008DB69029F5A550F22A36849421B6A5855A3685B6A5A55A368986AC15300218F
:40148000D86AC153186B9B68C1535B19197801350A401A703B1C02330293BCE7013699E707B0F0BD0000FFFFF0B585684E002B6B925B9B191C8887B0141B0094AC6A1A80EB
:4014C000A45B6B6A0294EC6A5F5CA45B2B6A03946C6B7F00645C5B180494AC680193645C1B780594009CE40FA4460F24251C6744009C3D40AC46E51764196C409C4203D216
:40150000012B05D0013B00E00133FF273F2B00D89F00019D2B7065460F2D29D0002D24D0BC4225D8059C029F24090094974200D9171C039D954200D2151C009A092A01D816
:40154000141C01343A1C0A2C14D1EA1B934206D9049A92089A42924152429B1A00E001338268D26953543A1C04E0151C644601E0151C00246746836824015B6A5F54836861
:401580009F6ABA53DA6A9B6895530F225B181D782A401A7083689B6859180B781C430C7007B0F0BD70B58068446BC069655C405CFF213F2801D88100C9B246B2FF24002EB1
:4015C00001DB4000C4B28D4201D9291C6C08012081439954049B9C5470BD0000002243088B4274D303098B425FD3030A8B4244D3030B8B4228D3030C8B420DD3FF2209022E
:4016000012BA030C8B4202D31212090265D0030B8B4219D300E0090AC30B8B4201D3CB03C01A5241830B8B4201D38B03C01A5241430B8B4201D34B03C01A5241030B8B42B6
:4016400001D30B03C01A5241C30A8B4201D3CB02C01A5241830A8B4201D38B02C01A5241430A8B4201D34B02C01A5241030A8B4201D30B02C01A5241CDD2C3098B4201D36F
:40168000CB01C01A524183098B4201D38B01C01A524143098B4201D34B01C01A524103098B4201D30B01C01A5241C3088B4201D3CB00C01A524183088B4201D38B00C01ACA
:4016C000524143088B4201D34B00C01A5241411A00D20146524110467047FFE701B5002000F0FCF802BDC0460029F7D003B5FFF775FF0EBC4243891A1847C04603460B433A
:401700007FD4002243088B4274D303098B425FD3030A8B4244D3030B8B4228D3030C8B420DD3FF22090212BA030C8B4202D31212090265D0030B8B4219D300E0090AC30BB2
:401740008B4201D3CB03C01A5241830B8B4201D38B03C01A5241430B8B4201D34B03C01A5241030B8B4201D30B03C01A5241C30A8B4201D3CB02C01A5241830A8B4201D3B9
:401780008B02C01A5241430A8B4201D34B02C01A5241030A8B4201D30B02C01A5241CDD2C3098B4201D3CB01C01A524183098B4201D38B01C01A524143098B4201D34B01BB
:4017C000C01A524103098B4201D30B01C01A5241C3088B4201D3CB00C01A524183088B4201D38B00C01A524143088B4201D34B00C01A5241411A00D20146524110467047D6
:401800005DE0CA0F00D04942031000D34042534000229C4603098B422DD3030A8B4212D3FC22890112BA030A8B420CD3890192118B4208D3890192118B4204D389013AD039
:40184000921100E08909C3098B4201D3CB01C01A524183098B4201D38B01C01A524143098B4201D34B01C01A524103098B4201D30B01C01A5241C3088B4201D3CB00C01AAA
:40188000524183088B4201D38B00C01A5241D9D243088B4201D34B00C01A5241411A00D20146634652415B10104601D34042002B00D54942704763465B1000D3404201B5FA
:4018C000002000F00BF802BD0029F8D003B5FFF715FF0EBC4243891A1847C0467047C046014B18687047C046780100200E4B70B500251E1C0D4CE41AA410A54204D0AB00DF
:40190000F35898470135F8E700F0EEFC084B00251E1C084CE41AA410A54204D0AB00F35898470135F8E770BDF4220000F4220000F4220000FC220000031C8218934202D044
:4019400019700133FAE770470EB410B59DB002A9029008610B48822488604861012040421FABC881084804CBA400006801938C8100F06CF80023029A13701DB010BC08BC99
:4019800003B01847FFFFFF7F78010020F0B58E6885B0071C0C1C03920193B34245D390238A89DB001A423DD003250969236801985B1A029363695D43EB0F5D19029B6D10E7
:4019C00001331B189D4200D21D1C381C53050FD5291C00F025FB061E13D0029A216900F0BCFAA289184B134080221343A38111E02A1C00F06DFB061E0CD1381C216900F083
:401A0000C9FA0C23402201203B60A38940421343A38117E0029B2661F61826606561019EED1AA560019BB34200D2019E321C2068039900F09BFA0020A3689B1BA3602368E6
:401A40009E19266005B0F0BD7FFBFFFFF0B59FB0029005938B890E1C171C1B0610D50B69002B0DD1402100F0DBFA30603061002804D10C23029A01381360D0E0402373619B
:401A8000002306AD6B6120336B761033AB763C1C2378002B03D1E31B049312D003E0252BF9D00134F4E7049B0298311C3A1CFFF76DFF431C00D1ACE06A69049B944663448A
:401AC0006B612378002B00D1A3E00122002352426A6002A95432521801342B60EB60AB601370AB654F4F2178381C052200F02AFA002808D0C01B01278740381C2B6801346C
:401B000018432860EEE72B68DA0604D55322202102A8121811701A0704D553222B2102A81218117022782A2A01D0099B0EE0059A111D12680591002A01DB099204E052423F
:401B4000EA60022213432B60013409E02278303A092A04D80A214B4301349B18F6E7099323782E2B18D163782A2B09D1059B02341A1D1B680592002B0DDA01235B420AE000
:401B8000002301342278303A092A04D80A214B4301349B18F6E70793234F2178381C032200F0D0F9002807D0C01B40278740381C2B6801341843286021781C480622671CB6
:401BC000297600F0BFF9002812D0194B002B06D10722059B073393430833059314E005AB00930298291C321C124B00E000BF07E005AB00930298291C321C0E4B00F08AF800
:401C00000390039B013304D06B69039A9B186B613DE7B3890B985B0601D5012040421FB0F0BDC046B2220000B8220000BC220000000000008D190000F7B5171C01930A6904
:401C40008B6800900C1C934200DA131C221C3B6043321278002A01D001333B6023689B0602D53B6802333B60062523681D401ED0231C43331B785A1E9341226892061CD51B
:401C80003020E1184031C870211C5A1C45310978A21840320233D1700FE0221C0123009801991932089EB047431C0ED00135E3683A689B1A9D42F0DBDAE7221C009801998B
:401CC0004332089DA847431C02D10120404220E006232068E1683A6803400025042B03D18D1AEB43DB171D40A3682269934201DD9B1AED180027AF420ADA221C01230098E2
:401D000001991A32089EB047431CDED00137F2E70020FEBDF0B58BB006920A1C43320793059004920A7E0C1C109B6E2A00D1A8E011D8632A22D009D8002A00D1B2E0582AAB
:401D400000D0C2E045310A707C4A4FE0642A1DD0692A1BD0B9E0732A00D1A7E009D86F2A29D0702A00D0B0E0202209680A43226037E0752A1FD0782A33D0A6E00E1C1A681A
:401D80004236111D196013683370A1E021681A68080606D4490604D5111D19600023D55E02E0111D19601568002D3BDA2D23049A6D42137036E021681A68080606D449068D
:401DC00004D51568111D1960ADB202E0111D196015685A4B227E03930A276F2A1DD108271BE0221C782145321170554A19680392081D226818600D68100602D4500600D58D
:401E0000ADB2D30702D520231A4322601027002D03D1202322689A432260231C002243331A7002E00A27454B03936368A360002B03DB0422216891432160002D02D1049EF5
:401E4000002B0ED0049E281C391CFFF74DFC039B013E5B5C281C3370391CFFF7BFFB051EF1D1082F09D12368DB0706D563682269934202DC3023013E3370049B9B1B23610A
:401E80002BE009681A68080607D4490605D5111D19601368A28A1A8004E0111D1960136862691A600023049E236116E01A68111D196016680021301C626800F043F800286F
:401EC00001D0801B6060636803E0261C42363270012323610023049A1370079B05980093211C069B09AAFFF7A7FE431C02D10120404221E0236905980699321C079DA84743
:401F0000431CF4D023689B0705D4099BE068984212DA181C10E00025E368099A9B1A9D42F3DA221C0123059806991932079EB047431CDCD00135EFE70BB0F0BDC322000045
:401F4000D4220000C9B28218904204D003788B4202D00130F8E700207047002310B5934203D0CC5CC4540133F9E710BD10B5814208D28B18984205D29B1A013A09D3995C87
:401F80008154FAE70023934203D0CC5CC4540133F9E710BD30B500293ED004390B68002B00DAC9181D4A1368141C002B02D14B60116031E099420DD208680A189A4203D194
:401FC0001368C3180B6053684B60216024E08A4203D8131C5A68002AF9D11D685C198C420BD10968691858181960904214D110685268091819605A600EE08C4202D90C2327
:40200000036009E008680C18944203D114685268001908604A60596030BDC04604020020032370B5CC1C9C430834051C0C2C01D20C2405E0002C03DA0C2300202B6042E04F
:402040008C42F9D3204A1368101C191C002913D00A68121B0DD40B2A02D90A608B181FE08B4202D15A6802601BE04A685A600B1C17E00B1C4968E9E7144E3368002B03D1EB
:40208000281C00F04BF83060281C211C00F046F8031C421CD0D00322C61C964386420AD11C60181C07210B301A1D8843821A0AD05142995007E0311A281C00F02FF8431CD7
:4020C000BAD0331CECE770BD0402002000020020F8B5061C0C1C151C002904D1111CFFF79FFF041C18E0002A03D1FFF753FF2C1C12E000F025F8A8420ED2301C291CFFF7E2
:402100008FFF071E07D0211C2A1CFFF726FF301C211CFFF73FFF3C1C201CF8BD38B50023064C051C081C2360FEF7A4F8431C03D12368002B00D02B6038BDC046B0020020A5
:402140000B1F1A68101F002A04DA891804390B68D018043870470000000000002533640D0A00000000300F40000400400F40000404300F4001310F4001330F4003420F404C
:4021800006430F4038803E4058045F011801B4016C407008DC036102A102B448B502D802EC080000030405060708090A0B0C0E0F101112131415161718191B1C1D1E1F2057
:4021C00021222325262728292A2B2E2F3031323334350000010101010100000001020304050000000000014004000140080001400C000140100001400800044008010440BB
:402200000802044008030440080404400000044000010440000204400003044000040440000000000000000002000000040000000800000010000000200000000500000010
:40224000000000001C0200202402002010010020140200203402002020220000E40000207C0200206002002068020020900200207002002084020020A80200200C0200204B
:40228000A0220000402200003C2200001D0C00004D0A00001D0900000D0A0000F50B0000010101020202020404040404040404044300232D302B2000686C4C00656667450B
:4022C00046470030313233343536373839414243444546003031323334353637383961626364656600000000F8B5C046F8BC08BC9E467047E5010000ED020000F8B5C046FF
:40230000F8BC08BC9E467047BD01000020230000C8000020B8000000380100000000000000000000B80200200000E02EC05D00001800000000366E01040404000000FF0FD4
:402340001F0000000801044008010440080104400801044008010440010000001E1E1E1E1E010000010000000202020202000000000000000000000000000000000000001A
:4023800000000000000000000000000000000000B022000000000000000000000000000000000000000000000000000000000000000000000000000000000000000000004B
:4023C00000000000000000000000000000000000180100200000000000000000000000000000000000000000000000000000000000000000000000000000000000000000A4
:40240000000000000000000000000000000000000000000000000000000000000000000000000000000000000000000000000000000000000000000000000000000000009C
:40244000000000000000000000000000000000000000000000000000000000000000000000000000000000000000000000000000000000000000000000000000000000005C
:40248000000000000000000000000000000000000000000000000000000000000000000000000000000000000000000000000000000000000000000000000000000000001C
:4024C00000000000000000000000000000000000000000000000000000000000000000000000000000000000000000000000000000000000000000000000000000000000DC
:0200000490303A
:0200000078285E
:0200000490402A
:200000000000000000000000000000000000000000000000000000000000000000000000E0
:0200000490501A
:0C000000000204C81193110104D389BB55
:0200000490600A
:0100000001FE
:00000001FF