:400000000010002011000000290200002902000008B500F00BF9C04638B5134C23688022D20213432360182000F0A8F922680F4B134023600E4A0F4B1A6010220E4B1A6098
:40004000802212060D4B1A60002525600C4A0D4B1A6009200C4900F05DF9092000F04EF90A4B1D6038BDC04600010B40FFFFFBFF0600008004010B402002024008010B405F
:4000800001000080000002408D0500000C020B4010B572B6002410E02C4863001A195200821891881B195B001A5AC31858880004104300F01DF90134E4B2012CECD923493E
:4000C000081C0C301C3100F0F9F8C0229200204B1A60C02292041F4B1A60EE2212021E4B1A6099231B041D4A13608A21C9031C4A11601C4A1360802189051B4A11601B4A70
:4001000013601B4B197802220A431A70194802783C218A4328390A430270197816220A431A708C22144B1A60144A154B1A604022144B1A60C0225203134B1A60D82212017F
:40014000124B1A60FFF768FF10BDC046F40D000000000140040001400C00014000500F4008500F4010500F4018500F4030500F4000700F4001700F4000000440800D400099
:400180000800044000010440080104400803044010B5064C2378002B07D1054B002B02D0044800E000BF0123237010BDE000002000000000F00D000008B5084B002B03D096
:4001C0000748084900E000BF07480368002B00D108BD064B002BFBD09847F9E700000000F00D0000E4000020C80000200000000010B562B600F080FAFA246400201C00F061
:4002000027FA322000F098F8201C00F069FD044A044B00F095FA00F02DFD041CEEE7C046295C8FC2F528F03FFEE7C04670B50F4E0F4D13E029686B68AC68002202E001C9E4
:4002400001C30432A242FAD1E868002202E0002102C304328242FAD11035013E002EE9D100F098FDFFF7C4FFFEE7C04601000000C80E000008B500230AE0032B03D89A00FD
:400280000A49505800E00A4899000A4A885001332F2BF2D9FFF7FCFE0022074B1A608022D205116801230B43136008BD000000002902000000000020C0000020F0B5002584
:4002C000002711E0BB00C658F3B2FF22964308E06A008A181478A419527822700135013BDBB2002BF4D10137032FEBD9F0BDC04608B50A1C002100F073FD08BD1F23184042
:400300001E3B8340181C014B1860704700E100E001BE704738B5041C0D1C1F2802D90020FFF7F6FFA400034B9C4664442068256038BDC0464000002010B5041C06E0084B56
:40034000186800F0E9F9074B9C46644480231B029C42F4D8024B5868604300F0DDF910BDCC0000200080FFFF08B5034B1B7A584300F0D2F908BDC046CC000020F0B5574649
:400380004E46C0B483B0041C00F0D0F90190E71E2D2F74D83F4B1B78DBB2A34208D33E4B1B78DBB29A463D4B1B78DBB2994631E03B4B1B78DBB2A34208D33A4B1B78DBB255
:4003C0009A46394B1B78DBB2994623E0374B1B78DBB2A34208D3364B1B78DBB29A46354B1B78DBB2994615E0334B1B78DBB2A34208D3324B1B78DBB29A46314B1B78DBB2C9
:40040000994607E02F4B1B78DBB29A462E4B1B78DBB299462D4BDE5D2F2E09D92A2C07D919222B4B1A60052000F076F9192503E0274B1D683F231D40AE4206D2234BDA5DE9
:40044000234B1A60052000F067F91F4B9C4664442378DBB21F4A13601F4B52461A601F4B4A461A600520FFF77FFFAE420AD9174BDA5D174B1A60052000F04EF902E00020F8
:40048000FFF746FF019800F055F903B00CBC91469A46F0BDC0F1FF0FC1F1FF0FC2F1FF0FC3F1FF0FC4F1FF0FC5F1FF0FC6F1FF0FC7F1FF0FC8F1FF0FC9F1FF0FCAF1FF0FDF
:4004C000CBF1FF0FCCF1FF0FCDF1FF0F340E00002CFF0B4028FF0B401CFF0B4020FF0B40034B1868C0231B02184000D00120704700010B4008B500F019F9044A1368C0211E
:4005000009020B43136000F015F908BD00010B4010B500F00BF908490A68084B1A408024E40122430A600A6813408022120213430B6000F0FFF810BD00010B40FF3FFFFFE7
:4005400070B5061C00F0F2F8041CFFF7C9FF002803D0FFF7DDFF012500E000250848331C0340084A106808490840184310601368012D01D1FFF7BEFF201C00F0DBF870BD1A
:400580000404040010020B40FBFBFBFF10B5244B1B685B0715D5234B1B685B070ED5224BD969042001401F4C22688A432260DA698243DA611B69002B00D098470420FFF796
:4005C000BFFF174B1B685B0518D5164B1B685B0510D5154BD9698022D2001140114802688A430260D969114A0A40DA615B69002B00D098478020C000FFF7A2FF084B1B68FC
:400600005B030CD5074B1B685B0304D5064B9B69002B00D098478020C002FFF791FF10BD10020B40DC000020FC000020FFFBFFFF0004000C014B18607047C046080105403F
:400640000004000C014B18607047C046140105400004000C014B18607047C0460C01054038B5041C0D1C00F061F8AC40024B1C6000F060F838BDC0460800054008B500F03B
:4006800055F8064A116801230B43136000F052F801201821FFF7E4FF08BDC04600000540014B18607047C0463801054010B50D4C8023DB042360236823600020FFF7B8FFC5
:4006C000236823600C22084B1A600120FFF7E8FF3122064B1A600648FFF7B2FF0548FFF7B7FF10BD000105402401054028010540102700008813000008B5064B1B78002B5E
:4007000004D1FFF7D3FF0122024B1A70FFF7B6FF08BDC0461C0100200230800804D0C0460138FDD1C046C046C0467047EFF3108072B6704780F310887047C046C046C046E6
:40074000F0B55F4656464D464446F0B4051C061C080387B099464F00030BCC0F92469B467F0D019467D06C4B9F4236D080205B4640031843C0006B0F1843684B83469C46B5
:4007800000239846EE00674400934B4649461D03C90F5B0052462D0B5B0D894600D16EE05D498B4264D080205C4940038C4600210543ED00500F0543D20063444846FF1857
:4007C0007B1C9A46009B604002900B430F2B00D9ACE053489B00C3589F465B461D4300D082E00823009300239B46023300269846CBE7029B01934346022B59D10124002557
:400800000026019B1C40444B00212D030A0D12052D0B1543434A1B0515401D436D00E4076D082543301C291C07B03CBC90469946A246AB46F0BD2B434ED05B46002B00D1C1
:4008400085E1584600F088FA021C2823291C9B1A161C5846D940083EB0400B1CB54003439B462E1C0023304F0093BF1A98468CE7514629432ED10025002202219EE751460C
:40088000294323D0002D00D154E1281C00F064FA031C28215046C91A1A1CC8405146083A914095400A1C05431F480021C31A85E7032B00D1C2E1012B00D06DE14446019B25
:4008C00000251C40E4B2002300269DE700250022012173E7032171E70423009300239B4601330026984650E70C230093093B98464BE7802500242D030026074B84E74B4625
:40090000AB46161C0193884675E7029BAB46161C019388466FE7C046FF07000001FCFFFF640E0000FFFF0F800DFCFFFF330C3604360C9C46331C140C1204120C534398469D
:40094000634653439946634663430193331C41466343090C4B445B18994505D9802040028146019949440191190C039141460904090C1B045B1804932B0C9846331C2D04A5
:40098000290C4B43604600934346654658435E43009B4D431B0C9946AE194E448446B54203D980235B029946CC44350C2B1C0398634484460593009B36041B041B0CF31863
:4009C0009C446046039058460504060C280C84465043351C81466046654344434846000C8346724314195C44A24203D98022520293465D44220CAD184A461204120C2404B3
:400A00004046A41862464A437143464360460096464670438046100C84468844E044414505D9802149028C46009961440091019803998446614499429B415B429946059886
:400A4000434684461204120C1B049B1863449C46AB4683429B4140460A19CC44A2428941E344CC45B6415C46000C8046494276425B426418334398448C428941AB459B41E6
:400A800049425B4219430D1C009B4544EE187602E50D2E43B346049B56021E43731E9E415B46D20D324366021643DB010AD50123334076081E435B46DB071E435B465B08F4
:400AC0009B465746634BFB18002B5ADD720709D00F223240042A05D0321DB242B6417642B344161C5A46D20106D55A465A4B1A4080239346DB00FB18584A934234DD01243E
:400B0000029B00251C400026554B7DE680205B460003034208D0054206D105432D032D0B4C46161C4E4B6FE65D4605432D032D0B4B4B69E6504600F00FF9031C2033272B03
:400B400000DCA6E65546083885400022ACE6281C00F002F9021C2032272A00DC75E6083885400026AB467DE65A46F608520716435A4601245502029A5B052D0B5B0D1440B7
:400B800042E6384DED1B382D0ADD0124029B00251C400026002337E6019B5746029391E71F2D25DC304B321C9C466744BE405B46BB40371CEA407E1EB74113433B431E1CE9
:400BC0005B46EB401D1C730709D00F233340042B05D0331DB342B6417642AD191E1C2B0220D50124029B00251C40002601230BE65A461E4BDB1BDA40131C202D1CD01C4A79
:400C000094465A466744BA40171C3E43721E96411E4307230025334007D00F2300253340042BD6D16B076D022D0B0124F6081E43029B1C400023E7E50027E6E780255B4621
:400C400001242D031D43019B2D0323401C1C2D0B034BD9E5FF030000FFFFFFFEFE070000FF07000002FCFFFF1E040000E2FBFFFF3E0400000B0330B5134C1A0B4B00051CEE
:400C80005B0DC90F0020A34210DD104883420EDC80200F4C40030243E41A1F2C0ADD0D48C31ADA40131C48424340581830BD0A4BC818FBE7281CE040084CA44663449A4029
:400CC000131C0343EFE7C046FE0300001D0400003304000013040000FFFFFF7FEDFBFFFF38B5041E16D0C50F00D04442201C00F033F8174B1B1A0A2821DC021C211C1532F3
:400D000091400A1C0B21081AC4405B052403240B5B0D03E000250023002400220021101C24030A0D1205240B14430A4A1B0514401C436400ED0764082C43211C38BD0B38E4
:400D400084405B052403240B5B0D0022E6E7C0461E040000FFFF0F801C2101231B04984201D3000C10391B0A984201D3000A08391B09984201D30009043902A2105C4018CC
:400D80007047C046040302020101010100000000000000000E4B70B500251E1C0D4CE41AA410A54204D0AB00F35898470135F8E700F078F8084B00251E1C084CE41AA410C2
:400DC000A54204D0AB00F35898470135F8E770BDB00E0000B00E0000B00E0000B80E0000031C8218934202D019700133FAE770470000000000300F40000400400F40000456
:400E000002330F4002400F4005410F4008430F40E280E6105304D42062048B048E049708D8401880200288018C40C608C808E201E6080000030405060708090A0B0C0E0FA7
:400E4000101112131415161718191B1C1D1E1F2021222325262728292A2B2E2F30313233343500002C0900000A0900000A090000FE080000F2070000F2070000F20800009D
:400E8000FE080000F2070000F2080000F2070000FE080000F6070000F6070000F60700000C0B0000F8B5C046F8BC08BC9E467047B901000075020000F8B5C046F8BC08BC0A
:400EC0009E46704791010000D80E0000C80000201800000040000000000000000000E02EC05D00001800000000366E010404040000000000000000000000000000000000AB
:400F000000000000000000000000000000000000000000000000000000000000000000000000000000000000000000000000000000000000000000000000000000000000B1
:400F40000000000000000000000000000000000000000000000000000000000000000000000000000000000000000000000000000000000000000000000000000000000071
:400F80000000000000000000000000000000000000000000000000000000000000000000000000000000000000000000000000000000000000000000000000000000000031
:400FC00000000000000000000000000000000000000000000000000000000000000000000000000000000000000000000000000000000000000000000000000000000000F1
:0200000490303A
:02000000B458F2
:0200000490402A
:200000000000000000000000000000000000000000000000000000000000000000000000E0
:0200000490501A
:0C000000000204C81193110104CCC5EBF0
:0200000490600A
:0100000001FE
:00000001FF