:400000000010002011000000AD020000AD02000008B500F04DF9C04638B5194C23688022D20213432360182000F0BAFA2268154B13402360144A154B1A603022144B1A60FD
:40004000103A144B1A60103A134B1A6080221206124B1A6000252560114A124B1A60124A124B1A60124A134B1A600920124900F055FA092000F03CFA104B1D6038BDC04682
:4000800000010B40FFFFFBFF0600008004010B400C020240140202401802024008010B40FE00008000000240FE0000C0400002401000008080000240B10700000C020B406B
:4000C00010B572B6002410E02B4863001A195200821891881B195B001A5AC31858880004104300F047F90134E4B2012CECD92249081C0C30203100F023F999231B041F4A83
:400100001360EE2109021E4A11601E4A13601E4A13601E4A1360802292051D4B1A601D4B197802220A431A701B4802783C218A4328390A430270197816220A431A702023AF
:40014000164A1360C4218902154A1160154A13600233154A1360154A1360D8221201144B1A600423134A1360134A1360FFF754FF00F026F910BDC046901800000000014000
:400180000C00014000500F4010500F4030500F4038500F4000700F4001700F40000004400800044018000440000104401801044008030440000404401804044010B5064CE3
:4001C0002378002B07D1054B002B02D0044800E000BF0123237010BD00010020000000002418000008B5084B002B03D00748084900E000BF07480368002B00D108BD064B2F
:40020000002BFBD09847F9E7000000002418000004010020C80000200000000038B562B600F0E8F800F02EFD00F072FD00F088FC0025002400F070FB0028FBD100F072FD06
:40024000002805D0002C03D1144800F045F90134002000F067FD002805D1012C03D1104800F03AF90024012000F05CFD002805D0002D03D10B4800F02FF90135012000F096
:4002800051FD002805D1012D03D1074800F024F9002500F037FE00F053FCCBE728180000401800005818000074180000FEE7C04670B50F4E0F4D13E029686B68AC6800226F
:4002C00002E001C901C30432A242FAD1E868002202E0002102C304328242FAD11035013E002EE9D101F070FAFFF798FFFEE7C04601000000E819000008B500230AE0032B71
:4003000003D89A000A49505800E00A4899000A4A885001332F2BF2D9FFF7D2FE0022074B1A608022D205116801230B43136008BD00000000AD02000000000020C0000020FE
:40034000F0B50025002711E0BB00C658F3B2FF22964308E06A008A181478A419527822700135013BDBB2002BF4D10137042FEBD9F0BDC04608B50A1C002101F04BFA08BDBA
:400380000C4B1B68002803D080221206134301E05B005B08074A1360074B1B68002803D080229204134301E0044A1340024A13607047C04680031A4008010B40FFFFFFFD6E
:4003C00008B50120FFF7DCFF08BDC04608B500F06DF808BD08B500F01DF808BD08B5044A1368802109060B431360FFF7EFFF08BD0000074008B5064B1B78002B04D1FFF7A7
:40040000E9FF0122024B1A70FFF7E8FF08BDC0461C01002010B5134A134B1A600023134A13600121124A1160124A13480260072412480460124803601248016012490A60DA
:40044000124A1360124A1360124A1360124A1360124A1360124A1360124A13601268124B1A8010BD0B0000020000074040000740480007400700008000030740040307400C
:4004800010030740440007400002074004020740880E0740C80E0740480F0740080F0740C80F0740880F07401E010020064A1168064B0B40902109040B431360044B1A88BB
:4004C000044B1A607047C04600000140FFFF0FFF1E010020880F074038B5051C002402E000F072FE0134285D0028F9D138BDC0461F2318401E3B8340181C014B186070478C
:4005000000E100E01F2318401E3B8340181C014B1860704780E100E001BE704738B5041C0D1C1F2802D90020FFF7F6FFA400034B9C4664442068256038BDC0464000002097
:4005400070B5041C0E1E032E02D90020FFF7E4FF1F2C02D90020FFF7DFFF03252540ED00063500F04BFEA408A400074B9C46644423680322AA409343AE40351C1D4325603D
:4005800000F040FE70BDC04600E400E008B5034B1B7A584300F028FE08BDC046CC000020F0B557464E46C0B483B0041C00F026FE0190E71E2D2F74D83F4B1B78DBB2A34290
:4005C00008D33E4B1B78DBB29A463D4B1B78DBB2994631E03B4B1B78DBB2A34208D33A4B1B78DBB29A46394B1B78DBB2994623E0374B1B78DBB2A34208D3364B1B78DBB28B
:400600009A46354B1B78DBB2994615E0334B1B78DBB2A34208D3324B1B78DBB29A46314B1B78DBB2994607E02F4B1B78DBB29A462E4B1B78DBB299462D4BDE5D2F2E09D945
:400640002A2C07D919222B4B1A60052000F0CCFD192503E0274B1D683F231D40AE4206D2234BDA5D234B1A60052000F0BDFD1F4B9C4664442378DBB21F4A13601F4B524646
:400680001A601F4B4A461A600520FFF77FFFAE420AD9174BDA5D174B1A60052000F0A4FD02E00020FFF738FF019800F0ABFD03B00CBC91469A46F0BDC0F1FF0FC1F1FF0FF7
:4006C000C2F1FF0FC3F1FF0FC4F1FF0FC5F1FF0FC6F1FF0FC7F1FF0FC8F1FF0FC9F1FF0FCAF1FF0FCBF1FF0FCCF1FF0FCDF1FF0FD01800002CFF0B4028FF0B401CFF0B4076
:4007000020FF0B40034B1868C0231B02184000D00120704700010B4008B500F06FFD044A1368C02109020B43136000F06BFD08BD00010B4010B500F061FD08490A68084B14
:400740001A408024E40122430A600A6813408022120213430B6000F055FD10BD00010B40FF3FFFFF70B5061C00F048FD041CFFF7C9FF002803D0FFF7DDFF012500E00025A2
:400780000848331C0340084A106808490840184310601368012D01D1FFF7BEFF201C00F031FD70BD0404040010020B40FBFBFBFF10B5244B1B685B0715D5234B1B685B07C5
:4007C0000ED5224BD969042001401F4C22688A432260DA698243DA611B69002B00D098470420FFF7BFFF174B1B685B0518D5164B1B685B0510D5154BD9698022D200114083
:40080000114802688A430260D969114A0A40DA615B69002B00D098478020C000FFF7A2FF084B1B685B030CD5074B1B685B0304D5064B9B69002B00D098478020C002FFF767
:4008400091FF10BD10020B40DC00002020010020FFFBFFFF38B517480368DBB2164A13700F24A343191C154D2A780F2313400B43F02293431A1C2B78A34313430360104A83
:40088000104B1A60104A114B1A60114A1168114B0B40C021C9000B4313600F20FFF732FE0F200D49FFF73AFE0F200321FFF748FE38BDC04600FF08406401002062F1FF0F8E
:4008C00000020001080008400008A0010400084010000140FFF0FFFF290F000008B500F061FC00F043FC0020002100F047FC0020002100F05FFC00F04BFC00F02DFC044A63
:40090000136804490B4313600F20FFF7F1FD08BD0400084000100880024B1878012318407047C046400100204000024B181880887047C04640010020F8B5104F3C5C381824
:40094000027955005519EDB29200D6B200F056FCA4003B199C6822680F21B1408A43111C0422B2400A43DE6933680721A9408B433360226000F046FCF8BDC046001900005C
:40098000F8B519490C5C0B181E79B200D2B275007519EDB2154B185CA300CB189F683B680F2191408B433B60022800D10020012801D1002700E0062700F020FCA4000A4B71
:4009C0001C19E1690B680722AA4093431A1C3B1CAB4013430B6000F015FC216B0B680122B24093430B60F8BD001900007C01002010B5002403E0201CFFF7C2FF0134012C01
:400A0000F9D910BD03231840024B1A68400210431860704704000840CA0807231940063B8B40191C835C194201D0012000E000207047C04610B5041C0134E4B2022C06D087
:400A400004480830211CFFF7E7FF0028F4D0201C10BDC046E0000020F8B5041C234B44331B5C9B00224A9E582248211CFFF7D4FF214B9E4203D88640FF20000406431F4B85
:400A8000185D013880B2002100F078FB1C4B185D013880B2002100F08DFB0F20FFF732FD18490A68184B1A40184B185D184B1B5D1B04034313430B60164F3D68164B1D406D
:400AC000164B1D430F20FFF713FD201CFFF734FF00F094FB041C3D60002000F085FB104B1E60201C00F08EFBF8BDC04600190000E000002068010020FFFFFEFF8001002048
:400B0000700100200800084000FF80FF740100207801002004000840FF1FDFFF200020000C00084008B5054B00221A70C2B21A7281221A70FFF790FF08BDC04640010020B5
:400B400010B50B4C00232370FF332372207AC0B2FFF770FF2072237ADBB2012B07D8217801220A432270207AC0B2FFF775FF10BD4001002038B5051C174B1C68A4B24300D8
:400B8000164AD3189C80164B44331B5C9B00154A9A58154B9A4208D81448291CFFF73CFF6B000E4AD31804419C80281CFFF7E8FE0F20FFF7A7FC0E4A11680E4B0B40A02178
:400BC00009020B4313600C4A11680C4B0B4013600F20FFF78DFC38BD0C0008404001002000190000E0000020FFFFFEFF6801002004000840FF1FDFFF0800084000FF80FF3A
:400C000010B5CC0807231940063B8B40D9B2002A04D0041923781943217003E0041923788B43237010BDC04670B5061C002400250BE0301CFFF776FFFFF76EFE0128FBD007
:400C4000301CFFF771FE24180135002DF1D0A0B270BDC046014B19547047C0467C01002010B5002404E0201C0021FFF7F3FF0134012CF8D9FFF7EEFD0020FFF7C3FEFFF7D8
:400C8000B7FE10BD08B50B4B5B7A002B04D1FFF7E7FF0122074B5A72FFF720FE00F00AFA0122044B9A72044A13688021C9030B43136008BD400100200400084030B5094B85
:400CC0001B5C42000849545A0849545208180025057105720648C05CCB181873054BD45230BDC04644190000440100204C010020F40000209001002010B5041CFFF712FFF2
:400D0000FFF70AFE0028FBD1201CFFF7D7FF10BD10B5002403E0201CFFF7EEFF0134012CF9D910BDF0B5474680B4041C224B1D5C224B5F5D224B5E5D224B5B5D98462248D6
:400D40001030211CFFF768FE002810D01E4B1B191B7ABE1BB34223DA1B4E301C1030211C0022FFF74DFF751943462B7318E0164B1B191B7ABE19B3420EDB134B5D192B7BF9
:400D8000013BDBB22B73002B0AD10F481030211C0122FFF735FF03E00B4B5D1943462B7309481030211CFFF737FE002800D0012004BC9046F0BDC04644190000980100205E
:400DC00094010020F40000204C01002043184900C818800880B27047F0B5474680B482B0041C3B4B1E5C3B4B9B5D019342003A4BD75A3A4B9B79002B08D0394D9046515B62
:400E0000381CFFF7E3FF071C43465853E1B23548314A00F0BDFA6300334A9A5ABA4207D80021324B1955BD1AADB20123984603E0D51BADB2002398464346002B15D12C4BC6
:400E40009B5DAB4211D2294B1B5D244A12191279934206D3201CFFF731FF0022234B1A551CE00133214A135518E06B469B88AB4206D21F4B9B5DAB4210D94346002B0DD12D
:400E80001302194801190E793343FF18BF1A3A0A6300C2520F710022144B1A556B469E88AE420DD24346002B0AD0FF2D04D90E4B1C19FF23237207E00B4B1C19257203E01C
:400EC000094B1C190023237202B004BC9046F0BD441900008401002044010020F400002090010020B40100204C010020880100208C01002010B5041C00F064F8201CFFF795
:400F00006BFF10BD10B5002409E00648211CFFF783FD002802D0201CFFF7ECFF0134012CF3D910BDE800002010B50F20FFF7EAFA01221E4B1A601E4B1878C0B2FFF71AFE40
:400F40001C4B1B785BB2002B05DA1A4A137801218B43137026E0164C2078C0B2FFF76AFD20702378DBB2012B05D8114B1878C0B2FFF772FD16E00F4B1A7801218A431A7050
:400F80001B785B060ED500220B4B1A7006E00B4AD15C0B4AD1540133074A1370064B1B78002BF4D00F20FFF7A3FA10BD140008404801002040010020600100206C010020D8
:400FC000E800002070B582B0154B1C5CC1B2154E154D00951548221C331C00F057FA335D295D134A1155DB2B03D8DB08114A135514E0EC2B03D81B090E4A13550EE0F42B8B
:4010000003D85B090B4A135508E0F92B03D89B09084A135502E00022064B1A5502B070BD441900009801002084010020B40100208C01002094010020024A136840218B43E4
:401040001360704704000840044A1168044B0B40802189000B4313607047C04608000840FFFCFFFC38B5002308E00D49CA5C55080C4CE55401325208CA54013302789A4214
:40108000F3D80F20FFF73EFA074A1168074B0B4007490B4313600F20FFF72AFA38BDC046740100207801002008000840FFFCFFFC0002000138B5204B02221A705A709A70FB
:4010C0001632DA801D4A9A801D4A9A60FFF7B4FF002304E099001B481B4A88500133164A52789A42F6D8002306E00421174AD1540239174AD1540133012BF6D9FFF7A4FF3E
:401100000D4C144D201C291C00F0A2F8201C00F0B0F8201C291C00F09BF8201C00F0CAF8201CFFF79FFF002403E0201CFFF74AFF0134012CF9D938BDB4010020CC04000004
:40114000581900000000FF0FE000002070010020800100209A0D0000034A1368802109060B4313607047C04600000240024A13685B005B081360704700000240034A136826
:401180001B0C1B04184310607047C04600000240034A1368802109060B4313607047C04640000240024A13685B005B081360704740000240034A13681B0C1B04184310609D
:4011C0007047C04640000240044B1B680F221340082BF9D0024B18607047C0460802074040020740000000000230800804D0C0460138FDD1C046C046C0467047EFF310802C
:4012000072B6704780F310887047C046C046C046F7B59C180023071C08268025019100922370237800982B432370BB689B6C9847019B984202D22378AB432370013E6D0874
:40124000002EEED12378F82B01D9F8232370F7BD70B5051C0E1C00242B789C4208D2AB68221C281C311C1B68FFF7D2FF0134F3E770BD38B5051C00242B789C4219D2AA6880
:4012800013681B5DDB080F2B00D90F23D16BD268C95C1155AA68042B04D9936D906B211C012203E0936D906B211C002298470134E2E738BDF0B5041C002687B063789E42AD
:4012C00062D2A3685A6C925D0392002A01D1013203921A6C925D019201992278914251D29A689B69515C0F221140B2000492002205910499019D5A50019B5B000293039B2B
:40130000019A9B189D423DD2A768E388A0885843FB68595D00F066F93B68595D00F0D2F8059B5843194B40005A2802D95B084008FAE7BA6904991B0C1B045350A3688208B3
:401340005B6B01215855A368C008DB69029F5A550F22A36849421B6A5855A3685B6A5A55A368986AC1530021D86AC153186B9B68C1535B19197801350A401A703B1C02332C
:401380000293BCE7013699E707B0F0BD0000FFFFF0B585684E002B6B925B9B191C8887B0141B0094AC6A1A80A45B6B6A0294EC6A5F5CA45B2B6A03946C6B7F00645C5B1848
:4013C0000494AC680193645C1B780594009CE40FA4460F24251C6744009C3D40AC46E51764196C409C4203D2012B05D0013B00E00133FF273F2B00D89F00019D2B7065460A
:401400000F2D29D0002D24D0BC4225D8059C029F24090094974200D9171C039D954200D2151C009A092A01D8141C01343A1C0A2C14D1EA1B934206D9049A92089A429241DD
:4014400052429B1A00E001338268D26953543A1C04E0151C644601E0151C00246746836824015B6A5F5483689F6ABA53DA6A9B6895530F225B181D782A401A7083689B6878
:4014800059180B781C430C7007B0F0BD70B58068446BC069655C405CFF213F2801D88100C9B246B2FF24002E01DB4000C4B28D4201D9291C6C08012081439954049B9C54BD
:4014C00070BD0000002243088B4274D303098B425FD3030A8B4244D3030B8B4228D3030C8B420DD3FF22090212BA030C8B4202D31212090265D0030B8B4219D300E0090AE9
:40150000C30B8B4201D3CB03C01A5241830B8B4201D38B03C01A5241430B8B4201D34B03C01A5241030B8B4201D30B03C01A5241C30A8B4201D3CB02C01A5241830A8B4201
:4015400001D38B02C01A5241430A8B4201D34B02C01A5241030A8B4201D30B02C01A5241CDD2C3098B4201D3CB01C01A524183098B4201D38B01C01A524143098B4201D375
:401580004B01C01A524103098B4201D30B01C01A5241C3088B4201D3CB00C01A524183088B4201D38B00C01A524143088B4201D34B00C01A5241411A00D201465241104683
:4015C0007047FFE701B5002000F0FCF802BDC0460029F7D003B5FFF775FF0EBC4243891A1847C04603460B437FD4002243088B4274D303098B425FD3030A8B4244D3030BF1
:401600008B4228D3030C8B420DD3FF22090212BA030C8B4202D31212090265D0030B8B4219D300E0090AC30B8B4201D3CB03C01A5241830B8B4201D38B03C01A5241430B3D
:401640008B4201D34B03C01A5241030B8B4201D30B03C01A5241C30A8B4201D3CB02C01A5241830A8B4201D38B02C01A5241430A8B4201D34B02C01A5241030A8B4201D3BE
:401680000B02C01A5241CDD2C3098B4201D3CB01C01A524183098B4201D38B01C01A524143098B4201D34B01C01A524103098B4201D30B01C01A5241C3088B4201D3CB0042
:4016C000C01A524183088B4201D38B00C01A524143088B4201D34B00C01A5241411A00D201465241104670475DE0CA0F00D04942031000D34042534000229C4603098B4258
:401700002DD3030A8B4212D3FC22890112BA030A8B420CD3890192118B4208D3890192118B4204D389013AD0921100E08909C3098B4201D3CB01C01A524183098B4201D39B
:401740008B01C01A524143098B4201D34B01C01A524103098B4201D30B01C01A5241C3088B4201D3CB00C01A524183088B4201D38B00C01A5241D9D243088B4201D34B00FA
:40178000C01A5241411A00D20146634652415B10104601D34042002B00D54942704763465B1000D3404201B5002000F00BF802BD0029F8D003B5FFF715FF0EBC4243891A1D
:4017C0001847C0467047C0460E4B70B500251E1C0D4CE41AA410A54204D0AB00F35898470135F8E700F0EEF8084B00251E1C084CE41AA410A54204D0AB00F35898470135E6
:40180000F8E770BDD0190000D0190000D0190000D8190000031C8218934202D019700133FAE7704700000000546F7020427574746F6E2050726573736564210D0A0000003E
:40184000546F7020427574746F6E2052656C6561736564210D0A0000426F74746F6D20427574746F6E2050726573736564210D0A00000000426F74746F6D20427574746F3A
:401880006E2052656C6561736564210D0A00000000300F40000400400F40000404300F4001310F4001330F4003420F4006430F4038803E4058045F011801B4016C40700890
:4018C000DC036102A102B448B502D802EC080000030405060708090A0B0C0E0F101112131415161718191B1C1D1E1F2021222325262728292A2B2E2F303132333435000092
:4019000001010000050100000000014004000140080001400C0001401000014008000440080104400802044008030440080404400000044000010440000204400003044096
:401940000004044000010000200000000200000000010000010100007401002078010020FC000020700100208001002044190000E0000020A80100209C010020A0010020D9
:40198000B0010020A4010020AC010020C001002068010020B41900005019000054190000290C0000590A000029090000190A0000010C00000101010202020204040404049E
:4019C00004040404F8B5C046F8BC08BC9E467047E5010000F9020000F8B5C046F8BC08BC9E467047BD010000F8190000C800002038000000C8000000000000000000E02EA5
:401A0000C05D00001800000000366E01040404000000FF0F0000FF0F030000000801044008010440050500001E1E01000202000000000000000000000000000000000000BC
:401A40000000000000000000000000000000000000000000000000000000000000000000000000000000000000000000000000000000000000000000000000000000000066
:401A80000000000000000000000000000000000000000000000000000000000000000000000000000000000000000000000000000000000000000000000000000000000026
:401AC00000000000000000000000000000000000000000000000000000000000000000000000000000000000000000000000000000000000000000000000000000000000E6
:401B000000000000000000000000000000000000000000000000000000000000000000000000000000000000000000000000000000000000000000000000000000000000A5
:0200000490303A
:020000006C850D
:0200000490402A
:200000000000000000000000000000000000000000000000000000000000000000000000E0
:0200000490501A
:0C000000000204C81193110104D07E1806
:0200000490600A
:0100000001FE
:00000001FF